{
  "contractName": "Staking",
  "abi": [
    {
      "inputs": [
        {
          "internalType": "address",
          "name": "_nftAddress",
          "type": "address"
        },
        {
          "internalType": "address",
          "name": "_erc20Address",
          "type": "address"
        }
      ],
      "stateMutability": "nonpayable",
      "type": "constructor"
    },
    {
      "inputs": [],
      "name": "erc20Address",
      "outputs": [
        {
          "internalType": "address",
          "name": "",
          "type": "address"
        }
      ],
      "stateMutability": "view",
      "type": "function",
      "constant": true
    },
    {
      "inputs": [],
      "name": "nftAddress",
      "outputs": [
        {
          "internalType": "address",
          "name": "",
          "type": "address"
        }
      ],
      "stateMutability": "view",
      "type": "function",
      "constant": true
    },
    {
      "inputs": [
        {
          "internalType": "uint256",
          "name": "tokenId",
          "type": "uint256"
        }
      ],
      "name": "stake",
      "outputs": [],
      "stateMutability": "nonpayable",
      "type": "function"
    },
    {
      "inputs": [
        {
          "internalType": "uint256",
          "name": "tokenId",
          "type": "uint256"
        }
      ],
      "name": "unstake",
      "outputs": [],
      "stateMutability": "nonpayable",
      "type": "function"
    }
  ],
  "bytecode": "0x608060405234801561001057600080fd5b5060405161057738038061057783398101604081905261002f9161007c565b600080546001600160a01b039384166001600160a01b031991821617909155600180549290931691161790556100af565b80516001600160a01b038116811461007757600080fd5b919050565b6000806040838503121561008f57600080fd5b61009883610060565b91506100a660208401610060565b90509250929050565b6104b9806100be6000396000f3fe608060405234801561001057600080fd5b506004361061004c5760003560e01c8063276184ae146100515780632e17de781461009a5780635bf8633a146100af578063a694fc3a146100cf575b600080fd5b6001546100719073ffffffffffffffffffffffffffffffffffffffff1681565b60405173ffffffffffffffffffffffffffffffffffffffff909116815260200160405180910390f35b6100ad6100a8366004610402565b6100e2565b005b6000546100719073ffffffffffffffffffffffffffffffffffffffff1681565b6100ad6100dd366004610402565b61032d565b60008181526002602052604090205473ffffffffffffffffffffffffffffffffffffffff163314610174576040517f08c379a000000000000000000000000000000000000000000000000000000000815260206004820152601660248201527f596f7520617265206e6f7420746865207374616b65720000000000000000000060448201526064015b60405180910390fd5b600081815260036020526040902054439061019090606461041b565b106101f7576040517f08c379a000000000000000000000000000000000000000000000000000000000815260206004820152601f60248201527f43616e6e6f7420756e7374616b652062656c6f772031303020626c6f636b7300604482015260640161016b565b6001546040517fa9059cbb000000000000000000000000000000000000000000000000000000008152336004820152670de0b6b3a7640000602482015273ffffffffffffffffffffffffffffffffffffffff9091169063a9059cbb906044016020604051808303816000875af1158015610275573d6000803e3d6000fd5b505050506040513d601f19601f82011682018060405250810190610299919061045a565b506000546040517f23b872dd0000000000000000000000000000000000000000000000000000000081523060048201523360248201526044810183905273ffffffffffffffffffffffffffffffffffffffff909116906323b872dd90606401600060405180830381600087803b15801561031257600080fd5b505af1158015610326573d6000803e3d6000fd5b5050505050565b6000546040517f23b872dd0000000000000000000000000000000000000000000000000000000081523360048201523060248201526044810183905273ffffffffffffffffffffffffffffffffffffffff909116906323b872dd90606401600060405180830381600087803b1580156103a557600080fd5b505af11580156103b9573d6000803e3d6000fd5b50505060009182525060026020908152604080832080547fffffffffffffffffffffffff0000000000000000000000000000000000000000163317905560039091529020439055565b60006020828403121561041457600080fd5b5035919050565b60008219821115610455577f4e487b7100000000000000000000000000000000000000000000000000000000600052601160045260246000fd5b500190565b60006020828403121561046c57600080fd5b8151801515811461047c57600080fd5b939250505056fea26469706673582212207233db11b8c8159c659a5d71354978af59810159b73fd00b2c46329b3c48201664736f6c634300080d0033",
  "immutableReferences": {},
  "source": "pragma solidity ^0.8.0;\n\nimport \"@openzeppelin/contracts/token/ERC721/IERC721.sol\";\nimport \"@openzeppelin/contracts/token/ERC20/IERC20.sol\";\n\ncontract Staking {\n    address public nftAddress;\n    address public erc20Address;\n    mapping(uint256 => address) tokenIdToStaker;\n    mapping(uint256 => uint256) tokenIdToStartBlock;\n\n    constructor(address _nftAddress, address _erc20Address) {\n        nftAddress = address(_nftAddress);\n        erc20Address = address(_erc20Address);\n    }\n\n    function stake(uint256 tokenId) external {\n        IERC721(nftAddress).transferFrom(msg.sender, address(this), tokenId);\n        tokenIdToStaker[tokenId] = msg.sender;\n        tokenIdToStartBlock[tokenId] = block.number;\n    }\n\n    function unstake(uint256 tokenId) external {\n        require(\n            tokenIdToStaker[tokenId] == msg.sender,\n            \"You are not the staker\"\n        );\n        require(\n            tokenIdToStartBlock[tokenId] + 100 < block.number,\n            \"Cannot unstake below 100 blocks\"\n        );\n\n        IERC20(erc20Address).transfer(msg.sender, 1 ether);\n        IERC721(nftAddress).transferFrom(address(this), msg.sender, tokenId);\n    }\n}\n",
  "sourcePath": "/Users/hunter/dev/me/test-nft/contracts/Staking.sol",
  "compiler": {
    "name": "solc",
    "version": "0.8.13+commit.abaa5c0e.Emscripten.clang"
  },
  "schemaVersion": "3.4.9",
  "updatedAt": "2022-09-14T09:13:52.764Z",
  "networkType": "ethereum",
  "devdoc": {
    "kind": "dev",
    "methods": {},
    "version": 1
  },
  "userdoc": {
    "kind": "user",
    "methods": {},
    "version": 1
  }
}