{
  "contractName": "TestNFT",
  "abi": [
    {
      "inputs": [],
      "stateMutability": "nonpayable",
      "type": "constructor"
    },
    {
      "anonymous": false,
      "inputs": [
        {
          "indexed": true,
          "internalType": "address",
          "name": "owner",
          "type": "address"
        },
        {
          "indexed": true,
          "internalType": "address",
          "name": "approved",
          "type": "address"
        },
        {
          "indexed": true,
          "internalType": "uint256",
          "name": "tokenId",
          "type": "uint256"
        }
      ],
      "name": "Approval",
      "type": "event"
    },
    {
      "anonymous": false,
      "inputs": [
        {
          "indexed": true,
          "internalType": "address",
          "name": "owner",
          "type": "address"
        },
        {
          "indexed": true,
          "internalType": "address",
          "name": "operator",
          "type": "address"
        },
        {
          "indexed": false,
          "internalType": "bool",
          "name": "approved",
          "type": "bool"
        }
      ],
      "name": "ApprovalForAll",
      "type": "event"
    },
    {
      "anonymous": false,
      "inputs": [
        {
          "indexed": true,
          "internalType": "address",
          "name": "previousOwner",
          "type": "address"
        },
        {
          "indexed": true,
          "internalType": "address",
          "name": "newOwner",
          "type": "address"
        }
      ],
      "name": "OwnershipTransferred",
      "type": "event"
    },
    {
      "anonymous": false,
      "inputs": [
        {
          "indexed": true,
          "internalType": "address",
          "name": "from",
          "type": "address"
        },
        {
          "indexed": true,
          "internalType": "address",
          "name": "to",
          "type": "address"
        },
        {
          "indexed": true,
          "internalType": "uint256",
          "name": "tokenId",
          "type": "uint256"
        }
      ],
      "name": "Transfer",
      "type": "event"
    },
    {
      "inputs": [
        {
          "internalType": "address",
          "name": "to",
          "type": "address"
        },
        {
          "internalType": "uint256",
          "name": "tokenId",
          "type": "uint256"
        }
      ],
      "name": "approve",
      "outputs": [],
      "stateMutability": "nonpayable",
      "type": "function"
    },
    {
      "inputs": [
        {
          "internalType": "address",
          "name": "owner",
          "type": "address"
        }
      ],
      "name": "balanceOf",
      "outputs": [
        {
          "internalType": "uint256",
          "name": "",
          "type": "uint256"
        }
      ],
      "stateMutability": "view",
      "type": "function",
      "constant": true
    },
    {
      "inputs": [
        {
          "internalType": "uint256",
          "name": "tokenId",
          "type": "uint256"
        }
      ],
      "name": "getApproved",
      "outputs": [
        {
          "internalType": "address",
          "name": "",
          "type": "address"
        }
      ],
      "stateMutability": "view",
      "type": "function",
      "constant": true
    },
    {
      "inputs": [
        {
          "internalType": "address",
          "name": "owner",
          "type": "address"
        },
        {
          "internalType": "address",
          "name": "operator",
          "type": "address"
        }
      ],
      "name": "isApprovedForAll",
      "outputs": [
        {
          "internalType": "bool",
          "name": "",
          "type": "bool"
        }
      ],
      "stateMutability": "view",
      "type": "function",
      "constant": true
    },
    {
      "inputs": [],
      "name": "maxSupply",
      "outputs": [
        {
          "internalType": "uint256",
          "name": "",
          "type": "uint256"
        }
      ],
      "stateMutability": "view",
      "type": "function",
      "constant": true
    },
    {
      "inputs": [],
      "name": "name",
      "outputs": [
        {
          "internalType": "string",
          "name": "",
          "type": "string"
        }
      ],
      "stateMutability": "view",
      "type": "function",
      "constant": true
    },
    {
      "inputs": [],
      "name": "owner",
      "outputs": [
        {
          "internalType": "address",
          "name": "",
          "type": "address"
        }
      ],
      "stateMutability": "view",
      "type": "function",
      "constant": true
    },
    {
      "inputs": [
        {
          "internalType": "uint256",
          "name": "tokenId",
          "type": "uint256"
        }
      ],
      "name": "ownerOf",
      "outputs": [
        {
          "internalType": "address",
          "name": "",
          "type": "address"
        }
      ],
      "stateMutability": "view",
      "type": "function",
      "constant": true
    },
    {
      "inputs": [],
      "name": "price",
      "outputs": [
        {
          "internalType": "uint256",
          "name": "",
          "type": "uint256"
        }
      ],
      "stateMutability": "view",
      "type": "function",
      "constant": true
    },
    {
      "inputs": [],
      "name": "renounceOwnership",
      "outputs": [],
      "stateMutability": "nonpayable",
      "type": "function"
    },
    {
      "inputs": [
        {
          "internalType": "address",
          "name": "from",
          "type": "address"
        },
        {
          "internalType": "address",
          "name": "to",
          "type": "address"
        },
        {
          "internalType": "uint256",
          "name": "tokenId",
          "type": "uint256"
        }
      ],
      "name": "safeTransferFrom",
      "outputs": [],
      "stateMutability": "nonpayable",
      "type": "function"
    },
    {
      "inputs": [
        {
          "internalType": "address",
          "name": "from",
          "type": "address"
        },
        {
          "internalType": "address",
          "name": "to",
          "type": "address"
        },
        {
          "internalType": "uint256",
          "name": "tokenId",
          "type": "uint256"
        },
        {
          "internalType": "bytes",
          "name": "data",
          "type": "bytes"
        }
      ],
      "name": "safeTransferFrom",
      "outputs": [],
      "stateMutability": "nonpayable",
      "type": "function"
    },
    {
      "inputs": [
        {
          "internalType": "address",
          "name": "operator",
          "type": "address"
        },
        {
          "internalType": "bool",
          "name": "approved",
          "type": "bool"
        }
      ],
      "name": "setApprovalForAll",
      "outputs": [],
      "stateMutability": "nonpayable",
      "type": "function"
    },
    {
      "inputs": [
        {
          "internalType": "bytes4",
          "name": "interfaceId",
          "type": "bytes4"
        }
      ],
      "name": "supportsInterface",
      "outputs": [
        {
          "internalType": "bool",
          "name": "",
          "type": "bool"
        }
      ],
      "stateMutability": "view",
      "type": "function",
      "constant": true
    },
    {
      "inputs": [],
      "name": "symbol",
      "outputs": [
        {
          "internalType": "string",
          "name": "",
          "type": "string"
        }
      ],
      "stateMutability": "view",
      "type": "function",
      "constant": true
    },
    {
      "inputs": [
        {
          "internalType": "uint256",
          "name": "index",
          "type": "uint256"
        }
      ],
      "name": "tokenByIndex",
      "outputs": [
        {
          "internalType": "uint256",
          "name": "",
          "type": "uint256"
        }
      ],
      "stateMutability": "view",
      "type": "function",
      "constant": true
    },
    {
      "inputs": [
        {
          "internalType": "address",
          "name": "owner",
          "type": "address"
        },
        {
          "internalType": "uint256",
          "name": "index",
          "type": "uint256"
        }
      ],
      "name": "tokenOfOwnerByIndex",
      "outputs": [
        {
          "internalType": "uint256",
          "name": "",
          "type": "uint256"
        }
      ],
      "stateMutability": "view",
      "type": "function",
      "constant": true
    },
    {
      "inputs": [
        {
          "internalType": "uint256",
          "name": "tokenId",
          "type": "uint256"
        }
      ],
      "name": "tokenURI",
      "outputs": [
        {
          "internalType": "string",
          "name": "",
          "type": "string"
        }
      ],
      "stateMutability": "view",
      "type": "function",
      "constant": true
    },
    {
      "inputs": [],
      "name": "totalSupply",
      "outputs": [
        {
          "internalType": "uint256",
          "name": "",
          "type": "uint256"
        }
      ],
      "stateMutability": "view",
      "type": "function",
      "constant": true
    },
    {
      "inputs": [
        {
          "internalType": "address",
          "name": "from",
          "type": "address"
        },
        {
          "internalType": "address",
          "name": "to",
          "type": "address"
        },
        {
          "internalType": "uint256",
          "name": "tokenId",
          "type": "uint256"
        }
      ],
      "name": "transferFrom",
      "outputs": [],
      "stateMutability": "nonpayable",
      "type": "function"
    },
    {
      "inputs": [
        {
          "internalType": "address",
          "name": "newOwner",
          "type": "address"
        }
      ],
      "name": "transferOwnership",
      "outputs": [],
      "stateMutability": "nonpayable",
      "type": "function"
    },
    {
      "inputs": [],
      "name": "mint",
      "outputs": [],
      "stateMutability": "payable",
      "type": "function",
      "payable": true
    },
    {
      "inputs": [],
      "name": "withdraw",
      "outputs": [],
      "stateMutability": "nonpayable",
      "type": "function"
    }
  ],
  "bytecode": "0x6080604052600a600b55674563918244f40000600c553480156200002257600080fd5b50604080518082018252600781526615195cdd13919560ca1b6020808301918252835180850190945260048452631513919560e21b9084015281519192916200006e91600091620000fd565b50805162000084906001906020840190620000fd565b505050620000a16200009b620000a760201b60201c565b620000ab565b620001df565b3390565b600a80546001600160a01b038381166001600160a01b0319831681179093556040519116919082907f8be0079c531659141344cd1fd0a4f28419497f9722a3daafe3b4186f6b6457e090600090a35050565b8280546200010b90620001a3565b90600052602060002090601f0160209004810192826200012f57600085556200017a565b82601f106200014a57805160ff19168380011785556200017a565b828001600101855582156200017a579182015b828111156200017a5782518255916020019190600101906200015d565b50620001889291506200018c565b5090565b5b808211156200018857600081556001016200018d565b600181811c90821680620001b857607f821691505b602082108103620001d957634e487b7160e01b600052602260045260246000fd5b50919050565b611f9980620001ef6000396000f3fe6080604052600436106101805760003560e01c80636352211e116100d6578063a22cb4651161007f578063d5abeb0111610059578063d5abeb01146103f0578063e985e9c514610406578063f2fde38b1461044f57600080fd5b8063a22cb46514610390578063b88d4fde146103b0578063c87b56dd146103d057600080fd5b80638da5cb5b116100b05780638da5cb5b1461034757806395d89b4114610365578063a035b1fe1461037a57600080fd5b80636352211e146102f257806370a0823114610312578063715018a61461033257600080fd5b806318160ddd116101385780633ccfd60b116101125780633ccfd60b1461029d57806342842e0e146102b25780634f6ccce7146102d257600080fd5b806318160ddd1461023e57806323b872dd1461025d5780632f745c591461027d57600080fd5b8063081812fc11610169578063081812fc146101dc578063095ea7b3146102145780631249c58b1461023657600080fd5b806301ffc9a71461018557806306fdde03146101ba575b600080fd5b34801561019157600080fd5b506101a56101a0366004611a49565b61046f565b60405190151581526020015b60405180910390f35b3480156101c657600080fd5b506101cf6104cb565b6040516101b19190611adc565b3480156101e857600080fd5b506101fc6101f7366004611aef565b61055d565b6040516001600160a01b0390911681526020016101b1565b34801561022057600080fd5b5061023461022f366004611b24565b610584565b005b6102346106ba565b34801561024a57600080fd5b506008545b6040519081526020016101b1565b34801561026957600080fd5b50610234610278366004611b4e565b61077e565b34801561028957600080fd5b5061024f610298366004611b24565b610805565b3480156102a957600080fd5b506102346108ad565b3480156102be57600080fd5b506102346102cd366004611b4e565b6108e4565b3480156102de57600080fd5b5061024f6102ed366004611aef565b6108ff565b3480156102fe57600080fd5b506101fc61030d366004611aef565b6109a3565b34801561031e57600080fd5b5061024f61032d366004611b8a565b610a08565b34801561033e57600080fd5b50610234610aa2565b34801561035357600080fd5b50600a546001600160a01b03166101fc565b34801561037157600080fd5b506101cf610ab4565b34801561038657600080fd5b5061024f600c5481565b34801561039c57600080fd5b506102346103ab366004611ba5565b610ac3565b3480156103bc57600080fd5b506102346103cb366004611c10565b610ad2565b3480156103dc57600080fd5b506101cf6103eb366004611aef565b610b60565b3480156103fc57600080fd5b5061024f600b5481565b34801561041257600080fd5b506101a5610421366004611d0a565b6001600160a01b03918216600090815260056020908152604080832093909416825291909152205460ff1690565b34801561045b57600080fd5b5061023461046a366004611b8a565b610bd4565b60007fffffffff0000000000000000000000000000000000000000000000000000000082167f780e9d630000000000000000000000000000000000000000000000000000000014806104c557506104c582610c61565b92915050565b6060600080546104da90611d3d565b80601f016020809104026020016040519081016040528092919081815260200182805461050690611d3d565b80156105535780601f1061052857610100808354040283529160200191610553565b820191906000526020600020905b81548152906001019060200180831161053657829003601f168201915b5050505050905090565b600061056882610d44565b506000908152600460205260409020546001600160a01b031690565b600061058f826109a3565b9050806001600160a01b0316836001600160a01b03160361061d5760405162461bcd60e51b815260206004820152602160248201527f4552433732313a20617070726f76616c20746f2063757272656e74206f776e6560448201527f720000000000000000000000000000000000000000000000000000000000000060648201526084015b60405180910390fd5b336001600160a01b038216148061063957506106398133610421565b6106ab5760405162461bcd60e51b815260206004820152603e60248201527f4552433732313a20617070726f76652063616c6c6572206973206e6f7420746f60448201527f6b656e206f776e6572206e6f7220617070726f76656420666f7220616c6c00006064820152608401610614565b6106b58383610da8565b505050565b600b546008541061070d5760405162461bcd60e51b815260206004820152601160248201527f457863656564206d617820737570706c790000000000000000000000000000006044820152606401610614565b600c5434101561075f5760405162461bcd60e51b815260206004820152600e60248201527f4e6f7420656e6f756768206574680000000000000000000000000000000000006044820152606401610614565b61077c3361076c60085490565b610777906001611dbf565b610e2e565b565b6107883382610e48565b6107fa5760405162461bcd60e51b815260206004820152602e60248201527f4552433732313a2063616c6c6572206973206e6f7420746f6b656e206f776e6560448201527f72206e6f7220617070726f7665640000000000000000000000000000000000006064820152608401610614565b6106b5838383610ec7565b600061081083610a08565b82106108845760405162461bcd60e51b815260206004820152602b60248201527f455243373231456e756d657261626c653a206f776e657220696e646578206f7560448201527f74206f6620626f756e64730000000000000000000000000000000000000000006064820152608401610614565b506001600160a01b03919091166000908152600660209081526040808320938352929052205490565b6108b56110b7565b60405133904780156108fc02916000818181858888f193505050501580156108e1573d6000803e3d6000fd5b50565b6106b583838360405180602001604052806000815250610ad2565b600061090a60085490565b821061097e5760405162461bcd60e51b815260206004820152602c60248201527f455243373231456e756d657261626c653a20676c6f62616c20696e646578206f60448201527f7574206f6620626f756e647300000000000000000000000000000000000000006064820152608401610614565b6008828154811061099157610991611dd7565b90600052602060002001549050919050565b6000818152600260205260408120546001600160a01b0316806104c55760405162461bcd60e51b815260206004820152601860248201527f4552433732313a20696e76616c696420746f6b656e20494400000000000000006044820152606401610614565b60006001600160a01b038216610a865760405162461bcd60e51b815260206004820152602960248201527f4552433732313a2061646472657373207a65726f206973206e6f74206120766160448201527f6c6964206f776e657200000000000000000000000000000000000000000000006064820152608401610614565b506001600160a01b031660009081526003602052604090205490565b610aaa6110b7565b61077c6000611111565b6060600180546104da90611d3d565b610ace33838361117b565b5050565b610adc3383610e48565b610b4e5760405162461bcd60e51b815260206004820152602e60248201527f4552433732313a2063616c6c6572206973206e6f7420746f6b656e206f776e6560448201527f72206e6f7220617070726f7665640000000000000000000000000000000000006064820152608401610614565b610b5a84848484611267565b50505050565b6060610b6b82610d44565b6000610b8260408051602081019091526000815290565b90506000815111610ba25760405180602001604052806000815250610bcd565b80610bac846112f0565b604051602001610bbd929190611e06565b6040516020818303038152906040525b9392505050565b610bdc6110b7565b6001600160a01b038116610c585760405162461bcd60e51b815260206004820152602660248201527f4f776e61626c653a206e6577206f776e657220697320746865207a65726f206160448201527f64647265737300000000000000000000000000000000000000000000000000006064820152608401610614565b6108e181611111565b60007fffffffff0000000000000000000000000000000000000000000000000000000082167f80ac58cd000000000000000000000000000000000000000000000000000000001480610cf457507fffffffff0000000000000000000000000000000000000000000000000000000082167f5b5e139f00000000000000000000000000000000000000000000000000000000145b806104c557507f01ffc9a7000000000000000000000000000000000000000000000000000000007fffffffff000000000000000000000000000000000000000000000000000000008316146104c5565b6000818152600260205260409020546001600160a01b03166108e15760405162461bcd60e51b815260206004820152601860248201527f4552433732313a20696e76616c696420746f6b656e20494400000000000000006044820152606401610614565b600081815260046020526040902080547fffffffffffffffffffffffff0000000000000000000000000000000000000000166001600160a01b0384169081179091558190610df5826109a3565b6001600160a01b03167f8c5be1e5ebec7d5bd14f71427d1e84f3dd0314c0f7b2291e5b200ac8c7c3b92560405160405180910390a45050565b610ace828260405180602001604052806000815250611425565b600080610e54836109a3565b9050806001600160a01b0316846001600160a01b03161480610e9b57506001600160a01b0380821660009081526005602090815260408083209388168352929052205460ff165b80610ebf5750836001600160a01b0316610eb48461055d565b6001600160a01b0316145b949350505050565b826001600160a01b0316610eda826109a3565b6001600160a01b031614610f565760405162461bcd60e51b815260206004820152602560248201527f4552433732313a207472616e736665722066726f6d20696e636f72726563742060448201527f6f776e65720000000000000000000000000000000000000000000000000000006064820152608401610614565b6001600160a01b038216610fd15760405162461bcd60e51b8152602060048201526024808201527f4552433732313a207472616e7366657220746f20746865207a65726f2061646460448201527f72657373000000000000000000000000000000000000000000000000000000006064820152608401610614565b610fdc8383836114ae565b610fe7600082610da8565b6001600160a01b0383166000908152600360205260408120805460019290611010908490611e35565b90915550506001600160a01b038216600090815260036020526040812080546001929061103e908490611dbf565b909155505060008181526002602052604080822080547fffffffffffffffffffffffff0000000000000000000000000000000000000000166001600160a01b0386811691821790925591518493918716917fddf252ad1be2c89b69c2b068fc378daa952ba7f163c4a11628f55a4df523b3ef91a4505050565b600a546001600160a01b0316331461077c5760405162461bcd60e51b815260206004820181905260248201527f4f776e61626c653a2063616c6c6572206973206e6f7420746865206f776e65726044820152606401610614565b600a80546001600160a01b038381167fffffffffffffffffffffffff0000000000000000000000000000000000000000831681179093556040519116919082907f8be0079c531659141344cd1fd0a4f28419497f9722a3daafe3b4186f6b6457e090600090a35050565b816001600160a01b0316836001600160a01b0316036111dc5760405162461bcd60e51b815260206004820152601960248201527f4552433732313a20617070726f766520746f2063616c6c6572000000000000006044820152606401610614565b6001600160a01b0383811660008181526005602090815260408083209487168084529482529182902080547fffffffffffffffffffffffffffffffffffffffffffffffffffffffffffffff001686151590811790915591519182527f17307eab39ab6107e8899845ad3d59bd9653f200f220920489ca2b5937696c31910160405180910390a3505050565b611272848484610ec7565b61127e84848484611566565b610b5a5760405162461bcd60e51b815260206004820152603260248201527f4552433732313a207472616e7366657220746f206e6f6e20455243373231526560448201527f63656976657220696d706c656d656e74657200000000000000000000000000006064820152608401610614565b60608160000361133357505060408051808201909152600181527f3000000000000000000000000000000000000000000000000000000000000000602082015290565b8160005b811561135d578061134781611e4c565b91506113569050600a83611eb3565b9150611337565b60008167ffffffffffffffff81111561137857611378611be1565b6040519080825280601f01601f1916602001820160405280156113a2576020820181803683370190505b5090505b8415610ebf576113b7600183611e35565b91506113c4600a86611ec7565b6113cf906030611dbf565b60f81b8183815181106113e4576113e4611dd7565b60200101907effffffffffffffffffffffffffffffffffffffffffffffffffffffffffffff1916908160001a90535061141e600a86611eb3565b94506113a6565b61142f8383611725565b61143c6000848484611566565b6106b55760405162461bcd60e51b815260206004820152603260248201527f4552433732313a207472616e7366657220746f206e6f6e20455243373231526560448201527f63656976657220696d706c656d656e74657200000000000000000000000000006064820152608401610614565b6001600160a01b0383166115095761150481600880546000838152600960205260408120829055600182018355919091527ff3f7a9fe364faab93b216da50a3214154f22a0a2b415b23a84c8169e8b636ee30155565b61152c565b816001600160a01b0316836001600160a01b03161461152c5761152c838261188b565b6001600160a01b038216611543576106b581611928565b826001600160a01b0316826001600160a01b0316146106b5576106b582826119d7565b60006001600160a01b0384163b1561171a576040517f150b7a020000000000000000000000000000000000000000000000000000000081526001600160a01b0385169063150b7a02906115c3903390899088908890600401611edb565b6020604051808303816000875af192505050801561161c575060408051601f3d9081017fffffffffffffffffffffffffffffffffffffffffffffffffffffffffffffffe016820190925261161991810190611f17565b60015b6116cf573d80801561164a576040519150601f19603f3d011682016040523d82523d6000602084013e61164f565b606091505b5080516000036116c75760405162461bcd60e51b815260206004820152603260248201527f4552433732313a207472616e7366657220746f206e6f6e20455243373231526560448201527f63656976657220696d706c656d656e74657200000000000000000000000000006064820152608401610614565b805181602001fd5b7fffffffff00000000000000000000000000000000000000000000000000000000167f150b7a0200000000000000000000000000000000000000000000000000000000149050610ebf565b506001949350505050565b6001600160a01b03821661177b5760405162461bcd60e51b815260206004820181905260248201527f4552433732313a206d696e7420746f20746865207a65726f20616464726573736044820152606401610614565b6000818152600260205260409020546001600160a01b0316156117e05760405162461bcd60e51b815260206004820152601c60248201527f4552433732313a20746f6b656e20616c7265616479206d696e746564000000006044820152606401610614565b6117ec600083836114ae565b6001600160a01b0382166000908152600360205260408120805460019290611815908490611dbf565b909155505060008181526002602052604080822080547fffffffffffffffffffffffff0000000000000000000000000000000000000000166001600160a01b03861690811790915590518392907fddf252ad1be2c89b69c2b068fc378daa952ba7f163c4a11628f55a4df523b3ef908290a45050565b6000600161189884610a08565b6118a29190611e35565b6000838152600760205260409020549091508082146118f5576001600160a01b03841660009081526006602090815260408083208584528252808320548484528184208190558352600790915290208190555b5060009182526007602090815260408084208490556001600160a01b039094168352600681528383209183525290812055565b60085460009061193a90600190611e35565b6000838152600960205260408120546008805493945090928490811061196257611962611dd7565b90600052602060002001549050806008838154811061198357611983611dd7565b60009182526020808320909101929092558281526009909152604080822084905585825281205560088054806119bb576119bb611f34565b6001900381819060005260206000200160009055905550505050565b60006119e283610a08565b6001600160a01b039093166000908152600660209081526040808320868452825280832085905593825260079052919091209190915550565b7fffffffff00000000000000000000000000000000000000000000000000000000811681146108e157600080fd5b600060208284031215611a5b57600080fd5b8135610bcd81611a1b565b60005b83811015611a81578181015183820152602001611a69565b83811115610b5a5750506000910152565b60008151808452611aaa816020860160208601611a66565b601f017fffffffffffffffffffffffffffffffffffffffffffffffffffffffffffffffe0169290920160200192915050565b602081526000610bcd6020830184611a92565b600060208284031215611b0157600080fd5b5035919050565b80356001600160a01b0381168114611b1f57600080fd5b919050565b60008060408385031215611b3757600080fd5b611b4083611b08565b946020939093013593505050565b600080600060608486031215611b6357600080fd5b611b6c84611b08565b9250611b7a60208501611b08565b9150604084013590509250925092565b600060208284031215611b9c57600080fd5b610bcd82611b08565b60008060408385031215611bb857600080fd5b611bc183611b08565b915060208301358015158114611bd657600080fd5b809150509250929050565b7f4e487b7100000000000000000000000000000000000000000000000000000000600052604160045260246000fd5b60008060008060808587031215611c2657600080fd5b611c2f85611b08565b9350611c3d60208601611b08565b925060408501359150606085013567ffffffffffffffff80821115611c6157600080fd5b818701915087601f830112611c7557600080fd5b813581811115611c8757611c87611be1565b604051601f82017fffffffffffffffffffffffffffffffffffffffffffffffffffffffffffffffe0908116603f01168101908382118183101715611ccd57611ccd611be1565b816040528281528a6020848701011115611ce657600080fd5b82602086016020830137600060208483010152809550505050505092959194509250565b60008060408385031215611d1d57600080fd5b611d2683611b08565b9150611d3460208401611b08565b90509250929050565b600181811c90821680611d5157607f821691505b602082108103611d8a577f4e487b7100000000000000000000000000000000000000000000000000000000600052602260045260246000fd5b50919050565b7f4e487b7100000000000000000000000000000000000000000000000000000000600052601160045260246000fd5b60008219821115611dd257611dd2611d90565b500190565b7f4e487b7100000000000000000000000000000000000000000000000000000000600052603260045260246000fd5b60008351611e18818460208801611a66565b835190830190611e2c818360208801611a66565b01949350505050565b600082821015611e4757611e47611d90565b500390565b60007fffffffffffffffffffffffffffffffffffffffffffffffffffffffffffffffff8203611e7d57611e7d611d90565b5060010190565b7f4e487b7100000000000000000000000000000000000000000000000000000000600052601260045260246000fd5b600082611ec257611ec2611e84565b500490565b600082611ed657611ed6611e84565b500690565b60006001600160a01b03808716835280861660208401525083604083015260806060830152611f0d6080830184611a92565b9695505050505050565b600060208284031215611f2957600080fd5b8151610bcd81611a1b565b7f4e487b7100000000000000000000000000000000000000000000000000000000600052603160045260246000fdfea26469706673582212203f5bc1bc3961449826a222ef90d3e52dec09323d78a15e0efdc5b489abf28c5864736f6c634300080d0033",
  "immutableReferences": {},
  "source": "pragma solidity ^0.8.0;\n\nimport \"@openzeppelin/contracts/token/ERC721/extensions/ERC721Enumerable.sol\";\nimport \"@openzeppelin/contracts/access/Ownable.sol\";\n\ncontract TestNFT is ERC721Enumerable, Ownable {\n    uint256 public maxSupply = 10;\n    uint256 public price = 5 ether;\n\n    constructor() ERC721(\"TestNFT\", \"TNFT\") {\n    }\n\n    function mint() external payable {\n      require(totalSupply() < maxSupply, \"Exceed max supply\");\n      require(msg.value >= price, \"Not enough eth\");\n\n      _safeMint(msg.sender, totalSupply() + 1);\n    }\n\n    function withdraw() external onlyOwner {\n      payable(msg.sender).transfer(address(this).balance);\n    }\n}",
  "sourcePath": "/Users/hunter/dev/me/test-nft/contracts/TestNFT.sol",
  "compiler": {
    "name": "solc",
    "version": "0.8.13+commit.abaa5c0e.Emscripten.clang"
  },
  "schemaVersion": "3.4.9",
  "updatedAt": "2022-09-14T09:13:52.751Z",
  "networkType": "ethereum",
  "devdoc": {
    "kind": "dev",
    "methods": {
      "approve(address,uint256)": {
        "details": "See {IERC721-approve}."
      },
      "balanceOf(address)": {
        "details": "See {IERC721-balanceOf}."
      },
      "getApproved(uint256)": {
        "details": "See {IERC721-getApproved}."
      },
      "isApprovedForAll(address,address)": {
        "details": "See {IERC721-isApprovedForAll}."
      },
      "name()": {
        "details": "See {IERC721Metadata-name}."
      },
      "owner()": {
        "details": "Returns the address of the current owner."
      },
      "ownerOf(uint256)": {
        "details": "See {IERC721-ownerOf}."
      },
      "renounceOwnership()": {
        "details": "Leaves the contract without owner. It will not be possible to call `onlyOwner` functions anymore. Can only be called by the current owner. NOTE: Renouncing ownership will leave the contract without an owner, thereby removing any functionality that is only available to the owner."
      },
      "safeTransferFrom(address,address,uint256)": {
        "details": "See {IERC721-safeTransferFrom}."
      },
      "safeTransferFrom(address,address,uint256,bytes)": {
        "details": "See {IERC721-safeTransferFrom}."
      },
      "setApprovalForAll(address,bool)": {
        "details": "See {IERC721-setApprovalForAll}."
      },
      "supportsInterface(bytes4)": {
        "details": "See {IERC165-supportsInterface}."
      },
      "symbol()": {
        "details": "See {IERC721Metadata-symbol}."
      },
      "tokenByIndex(uint256)": {
        "details": "See {IERC721Enumerable-tokenByIndex}."
      },
      "tokenOfOwnerByIndex(address,uint256)": {
        "details": "See {IERC721Enumerable-tokenOfOwnerByIndex}."
      },
      "tokenURI(uint256)": {
        "details": "See {IERC721Metadata-tokenURI}."
      },
      "totalSupply()": {
        "details": "See {IERC721Enumerable-totalSupply}."
      },
      "transferFrom(address,address,uint256)": {
        "details": "See {IERC721-transferFrom}."
      },
      "transferOwnership(address)": {
        "details": "Transfers ownership of the contract to a new account (`newOwner`). Can only be called by the current owner."
      }
    },
    "version": 1
  },
  "userdoc": {
    "kind": "user",
    "methods": {},
    "version": 1
  }
}